:020000040000FA
:04000000F6EF3EF0E9
:107DDE00010EC26E040EC16EBA0EC06E120000EE1F
:107DEE0001F0380EEE6AE806FDE1000172EF3FF099
:107DFE00010E20EC3FF03C6E3C50356E366A35502D
:107E0E0009EF3FF01200020E20EC3FF03C6E3C50AA
:107E1E00336E346A335014EF3FF01200030E20EC31
:107E2E003FF03C6E3C50316E326A31501FEF3FF0E6
:107E3E001200396E3944E846FC0BC212C282C4CF1E
:107E4E003AF03B6A3A503B6E3A6AC3503A26000EFD
:107E5E003B223A5033EF3FF01200000E386E000E08
:107E6E00376E38BE44EF3FF0385009E1140E375CE0
:107E7E00D8A044EF3FF046EF3FF04AEF3FF06EEFF1
:107E8E003FF06EEF3FF0000E20EC3FF03C6E3D6A8F
:107E9E00D8903734D96E3834DA6E010ED926000EEA
:107EAE00DA223CC0DEFF3DC0DDFF374A382A38BE3D
:107EBE006AEF3FF0385009E1140E375CD8A06AEF34
:107ECE003FF06CEF3FF04AEF3FF06EEF3FF0275080
:107EDE0071EF3FF01200000E426E000E436E000E68
:107EEE00446E000E456E000E3E6E000E3F6E000E8E
:107EFE00406E000E416EEFEC3EF03F0E926EFC0EA9
:107F0E00936E800E946E000E956E070E966E829096
:107F1E00829282948398839A839C839E819098EF19
:107F2E003FF034EC3FF0426EFFEC3EF0436E0AEC55
:107F3E003FF0446E15EC3FF0456E320E4264AAEFF0
:107F4E003FF0ACEF3FF0B7EF3FF0640E4260B2EFA0
:107F5E003FF0B4EF3FF0B7EF3FF08282BAEF3FF061
:107F6E008292BAEF3FF0320E4364C0EF3FF0C2EFA1
:107F7E003FF0CDEF3FF0640E4360C8EF3FF0CAEF25
:107F8E003FF0CDEF3FF08284D0EF3FF08294D0EF00
:107F9E003FF0320E4464D6EF3FF0D8EF3FF0E3EF00
:107FAE003FF0640E4460DEEF3FF0E0EF3FF0E3EFB2
:107FBE003FF08388E6EF3FF08398E6EF3FF0320E16
:107FCE004564ECEF3FF0EEEF3FF0F9EF3FF0640E5B
:107FDE004560F4EF3FF0F6EF3FF0F9EF3FF0838AA4
:107FEE0098EF3FF0839A98EF3FF098EF3FF000EF55
:027FFE0000F091
:020000040020DA
:08000000FFFFFFFFFFFFFFFF00
:020000040030CA
:0E000000000C1F1EFF0080FF0FC00FE00F401E
:00000001FF
